:100000001800001071000000000000000000000057
:1000100000000000000000000000000000000000E0
:1000200013B5802110200F4B09025A5802435A5031
:1000300010200D4A995801439950002101910199CE
:100040000A48814202DC01990131F7E710249958EE
:10005000A143995000220192019A8242E8DC019A60
:100060000132F8E700000150FC3F0000DF9304007C
:1000700000221049104B10B55B1A9B0801339B00FE
:10008000101D984204D000248A181460021CF7E75F
:1000900000220A490A4B5B1A9B0801339B00101D82
:1000A000984204D0074CA4588C50021CF7E7FFF785
:1000B000B7FFFEE71800001018000010180000102D
:0800C00018000010C800000048
:040000030000007188
:00000001FF
